:100000000C9435000C945D000C945D000C945D0024
:100010000C945D000C945D000C945D000C945D00EC
:100020000C945D000C945D000C945D000C945D00DC
:100030000C945D000C945D000C945D000C945D00CC
:100040000C94DE010C945D000C944E020C9428027A
:100050000C945D000C945D000C945D000C945D00AC
:100060000C945D000C945D00A40311241FBECFEF1F
:10007000D8E0DEBFCDBF11E0A0E0B1E0E0E6F8E0FF
:1000800002C005900D92A633B107D9F721E0A6E38F
:10009000B1E001C01D92AC3DB207E1F710E0C5E34D
:1000A000D0E004C02197FE010E942804C433D10788
:1000B000C9F70E9480020C942E040C940000AF92A9
:1000C000BF92CF92DF92EF92FF920F931F93CF9345
:1000D000DF936C017B018B01040F151FEB015E01A7
:1000E000AE18BF08C017D10759F06991D601ED913C
:1000F000FC910190F081E02DC6010995892B79F7DB
:10010000C501DF91CF911F910F91FF90EF90DF908C
:10011000CF90BF90AF900895FC01538D448D252F53
:1001200030E0842F90E0821B930B541710F0CF9691
:10013000089501970895FC01918D828D981761F0C3
:10014000A28DAE0FBF2FB11D5D968C91928D9F5FDA
:100150009F73928F90E008958FEF9FEF0895FC01B9
:10016000918D828D981731F0828DE80FF11D858D6C
:1001700090E008958FEF9FEF0895FC01918D228DFF
:10018000892F90E0805C9F4F821B91098F73992784
:1001900008958FE391E00E94BD0021E0892B09F4CE
:1001A00020E0822F089580E090E0892B29F00E94C2
:1001B000C90081110C9400000895FC01A48DA80FC2
:1001C000B92FB11DA35ABF4F2C91848D90E0019699
:1001D0008F739927848FA689B7892C93A089B189B9
:1001E0008C91837080648C93938D848D981306C05A
:1001F0000288F389E02D80818F7D80830895EF92BE
:10020000FF920F931F93CF93DF93EC0181E0888FD0
:100210009B8D8C8D98131AC0E889F989808185FFA0
:1002200015C09FB7F894EE89FF896083E889F98942
:1002300080818370806480839FBF81E090E0DF9144
:10024000CF911F910F91FF90EF900895F62E0B8D97
:1002500010E00F5F1F4F0F731127E02E8C8D8E1152
:100260000CC00FB607FCFACFE889F989808185FFB9
:10027000F5CFCE010E94DD00F1CFEB8DEC0FFD2F0D
:10028000F11DE35AFF4FF0829FB7F8940B8FEA8974
:10029000FB8980818062CFCFCF93DF93EC01888D83
:1002A0008823B9F0AA89BB89E889F9898C9185FDF1
:1002B00003C0808186FD0DC00FB607FCF7CF8C917F
:1002C00085FFF2CF808185FFEDCFCE010E94DD005A
:1002D000E9CFDF91CF910895FC0101900020E9F76B
:1002E0003197AF01481B590BBC018FE391E00C948F
:1002F0005F008F929F92AF92BF920F931F93CF9305
:10030000DF93CDB7DEB7A1970FB6F894DEBF0FBE6F
:10031000CDBF19A2423008F44AE08E010F5D1F4F95
:10032000842E912CB12CA12CA50194010E94F003E4
:10033000E62FB901CA01EA30F4F4E05DD801EE938A
:100340008D01232B242B252B79F790E080E010974B
:1003500019F0CD010E946C01A1960FB6F894DEBF92
:100360000FBECDBFDF91CF911F910F91BF90AF9086
:100370009F908F900895E95CE1CFCF92DF92EF924A
:10038000FF92CF93DF936B017C016DE28FE391E0ED
:100390000E94FF00EC0166277727CB016C197D09CD
:1003A0008E099F094AE00E9479018C0F9D1FDF9101
:1003B000CF91FF90EF90DF90CF9008951F920F9212
:1003C0000FB60F9211242F933F938F939F93AF9368
:1003D000BF9380913B0190913C01A0913D01B09170
:1003E0003E0130913A0123E0230F2D3758F5019655
:1003F000A11DB11D20933A0180933B0190933C01D4
:10040000A0933D01B0933E01809136019091370158
:10041000A0913801B09139010196A11DB11D8093C1
:10042000360190933701A0933801B0933901BF9101
:10043000AF919F918F913F912F910F900FBE0F9091
:100440001F90189526E8230F0296A11DB11DD2CF4B
:100450001F920F920FB60F9211242F933F934F9339
:100460005F936F937F938F939F93AF93BF93EF931C
:10047000FF938FE391E00E94DD00FF91EF91BF9128
:10048000AF919F918F917F916F915F914F913F912C
:100490002F910F900FBE0F901F9018951F920F92E3
:1004A0000FB60F9211242F938F939F93EF93FF9387
:1004B000E0914F01F09150018081E0915501F09160
:1004C000560182FD1BC09081809158018F5F8F7310
:1004D00020915901821741F0E0915801F0E0E15C70
:1004E000FE4F958F80935801FF91EF919F918F91CF
:1004F0002F910F900FBE0F901F9018958081F4CF11
:10050000789484B5826084BD84B5816084BD85B5EE
:10051000826085BD85B5816085BD80916E008160FA
:1005200080936E00109281008091810082608093A0
:1005300081008091810081608093810080918000A2
:100540008160809380008091B10084608093B100CD
:100550008091B00081608093B00080917A008460C7
:1005600080937A0080917A00826080937A008091F3
:100570007A00816080937A0080917A00806880930D
:100580007A001092C100E0914F01F091500182E099
:100590008083E0914B01F0914C011082E0914D017C
:1005A000F0914E018FEC808310925701E09153013E
:1005B000F091540186E08083E0915101F091520165
:1005C000808180618083E0915101F09152018081AE
:1005D00088608083E0915101F091520180818068B0
:1005E0008083E0915101F091520180818F7D808361
:1005F0003091690024B181E090E0AC0101C0440F6A
:100600003A95EAF7242B24B920916900AC0102C085
:10061000440F551F2A95E2F740937C002091690012
:100620005091690040916900BC0102C0660F771FBC
:100630002A95E2F79B01BC0101C0660F5A95EAF7C3
:10064000262B01C0880F4A95EAF7822B80937A0007
:1006500080917E00816080937E0080E4382E442467
:100660004A9493E0592E612C712CC1E0D0E000E057
:1006700010E030927C0080917A00806480937A0050
:1006800080917A0086FDFCCFA0917800B09179002E
:100690004D010B2E000CAA08BB082FEF30E00E9482
:1006A0002104A30192010E94D10369017A01909172
:1006B000690085B19E0102C0220F331F9A95E2F7AF
:1006C00071E0C71672E0D7067CF1822B85B982E112
:1006D00091E00E946C01B7FE2BC0C501B4010E94DD
:1006E000BD0181E291E00E946C01F7FE27C0C701C5
:1006F000B6010E94BD0183E391E00E946C018FEF7F
:1007000091EE24E0815090402040E1F700C00000CD
:100710000115110509F4ADCF0E94C900882309F421
:10072000A8CF0E940000A5CF209530958223CECF80
:100730004AE0C501B4010E947901D3CF4AE0C70164
:10074000B6010E947901D7CFEFE3F1E01382128264
:1007500088EE93E0A0E0B0E084839583A683B7831E
:1007600084E091E09183808385EC90E09587848795
:1007700084EC90E09787868780EC90E0918B808B6B
:1007800081EC90E0938B828B82EC90E0958B848B54
:1007900086EC90E0978B868B118E128E138E148EC2
:1007A0000895052E97FB1EF400940E94E80357FD60
:1007B00007D00E94F00307FC03D04EF40C94E8032A
:1007C00050954095309521953F4F4F4F5F4F08957D
:1007D00090958095709561957F4F8F4F9F4F0895AD
:1007E000A1E21A2EAA1BBB1BFD010DC0AA1FBB1F35
:1007F000EE1FFF1FA217B307E407F50720F0A21BA7
:10080000B30BE40BF50B661F771F881F991F1A9413
:1008100069F760957095809590959B01AC01BD013D
:10082000CF010895A29FB001B39FC001A39F700D97
:10083000811D1124911DB29F700D811D1124911DE8
:1008400008950E941204B7FF0895821B930B089528
:10085000EE0FFF1F0590F491E02D0994F894FFCF5F
:1008600000000000FF005F008C004C01BD009B00F9
:10087000AF00416E616C6F6720496E7075743A20ED
:1008800000207C205363616C65642056616C756543
:060890003A20000D0A00F1
:00000001FF
